:020000001E28B8
:100008007E14803120007F08F0008B1A0B1D1A28FF
:100018000B117B1403100C1D0314031C162820005D
:100028000C15182820000C11220895007008FF00F4
:100038007E1009001F28F701F801F901FA01FB01F8
:100048007E1020002728BC20DF20E420D0208B173A
:100058000B177B10F901FA017B1C302879087A0408
:10006800031D402820000C16E830840080308500ED
:10007800003FF700013F832800307A02253003193A
:100088007902031884280330F1000030F2007A085E
:10009800F4007908F300902071037204031D5628B8
:1000A80020000C120330F1000030F2007A08F4004E
:1000B8007908F300902071087204031D6528200058
:1000C8000C160330F1000030F2007A08F4007908C9
:1000D800F3009020023071067204031D8428771CF7
:1000E800782820000C167A2820000C127808A10025
:1000F8007708A000A136A00C2008F7002108F80016
:100108000130F9070030FA3D03307A02E93003196B
:100118007902031C30282E28710872040319B728A5
:10012800F601F60AF21BA2280130F135F20D890B0F
:1001380099280130F5007508F607962872087402A8
:10014800031DA82871087302031CAE287108F30266
:100158007208F43B0130F236F10C890BAF280130FC
:10016800F602031DA2287408F2007308F1000800C3
:1001780022008C0121000C1220000C1221000C110D
:1001880020000C1123008C013F3024008C0021003A
:10019800951322009D01080021001508C039113867
:1001A8009500FB3020009500FB30F1007108A2009B
:1001B8000B118B16080030302100990098010800B7
:0C01C8001630210097000800193408349C
:020000040001F9
:04000E00E4FFFFFE0E
:00000001FF
