:020000001E28B8
:100008007E14803120007F08F7008B1A0B1D1A28F8
:100018000B11761403100C1D0314031C1628200062
:100028000C15182820000C117B0895007708FF0094
:100038007E1009001F28F001F101F201F301F4011B
:10004800F501F6017E10200029288720AE20B72070
:100058009B208B170B177610F401F501761C3228BC
:1000680074087504031D432820000C16BB30840057
:1000780080308500003FF200013FF3007528003012
:100088007502253003197402031878287008710462
:10009800031D502820000C1270037104031D6528ED
:1000A800721C592820000C165B2820000C127308BB
:1000B800FA007208F900FA36F90C7908F2007A08A1
:1000C800F300023070067104031D6C2820000C1622
:1000D8000130F0070030F13D033070067104031D54
:1000E8007A28F001F1017A2820000C1276100130EC
:1000F800F4070030F53D00307502793003197402B9
:10010800031C3228302822008C0121000C12200008
:100118000C1221000C1520000C1123008C013F301B
:1001280024008C002100951322009D010800210065
:1001380095171517951215129511F8309505F73082
:10014800200095006C30F8007808FB000B118B1626
:100158000B080800303021009900190887396838E1
:1001680099009801080016302100970008001934FA
:02017800083449
:020000040001F9
:04000E00E4FFFFFE0E
:00000001FF
