:020000001E28B8
:100008007E14803120007F08F0008B1A0B1D1A28FF
:100018000B117B1403100C1D0314031C162820005D
:100028000C15182820000C11220895007008FF00F4
:100038007E1009001F28F701F801F901FA01FB01F8
:100048007E1020002728BF20E220E720D3208B172E
:100058000B177B10F901FA017B1C302879087A0408
:10006800031D402820000C16EB30840080308500EA
:10007800003FF700013F832800307A02253003193A
:100088007902031885280330F1000030F2007A085D
:10009800F4007908F300932071037204031D5628B5
:1000A80020000C120330F1000030F2007A08F4004E
:1000B8007908F300932071087204031D6528200055
:1000C8000C160330F1000030F2007A08F4007908C9
:1000D800F3009320023071067204031D8728771CF1
:1000E800782820000C167A2820000C127808A10025
:1000F8007708A000A136A00C2008F7002108F80016
:10010800872820000C120130F9070030FA3D03302F
:100118007A02E93003197902031C30282E28710865
:1001280072040319BA28F601F60AF21BA528013051
:10013800F135F20D890B9C280130F5007508F6079A
:10014800992872087402031DAB2871087302031CF6
:10015800B1287108F3027208F43B0130F236F10C51
:10016800890BB2280130F602031DA5287408F20095
:100178007308F100080022008C0121000C122000F5
:100188000C1221000C1120000C1123008C013F30AF
:1001980024008C002100951322009D0108002100F5
:1001A8001508C03911389500FB3020009500FB3048
:1001B800F1007108A2000B118B16080030302100E5
:1001C800990098010800163021009700080019349A
:0201D8000834E9
:020000040001F9
:04000E00E4FFFFFE0E
:00000001FF
